{
  "contractName": "Election",
  "abi": [
    {
      "inputs": [],
      "payable": false,
      "stateMutability": "nonpayable",
      "type": "constructor"
    },
    {
      "anonymous": false,
      "inputs": [
        {
          "indexed": true,
          "internalType": "uint256",
          "name": "_optionId",
          "type": "uint256"
        }
      ],
      "name": "votedEvent",
      "type": "event"
    },
    {
      "constant": true,
      "inputs": [],
      "name": "electionName",
      "outputs": [
        {
          "internalType": "string",
          "name": "",
          "type": "string"
        }
      ],
      "payable": false,
      "stateMutability": "view",
      "type": "function"
    },
    {
      "constant": true,
      "inputs": [],
      "name": "optionCount",
      "outputs": [
        {
          "internalType": "uint256",
          "name": "",
          "type": "uint256"
        }
      ],
      "payable": false,
      "stateMutability": "view",
      "type": "function"
    },
    {
      "constant": true,
      "inputs": [
        {
          "internalType": "uint256",
          "name": "",
          "type": "uint256"
        }
      ],
      "name": "options",
      "outputs": [
        {
          "internalType": "uint256",
          "name": "id",
          "type": "uint256"
        },
        {
          "internalType": "string",
          "name": "description",
          "type": "string"
        },
        {
          "internalType": "uint256",
          "name": "voteCount",
          "type": "uint256"
        }
      ],
      "payable": false,
      "stateMutability": "view",
      "type": "function"
    },
    {
      "constant": true,
      "inputs": [],
      "name": "owner",
      "outputs": [
        {
          "internalType": "address",
          "name": "",
          "type": "address"
        }
      ],
      "payable": false,
      "stateMutability": "view",
      "type": "function"
    },
    {
      "constant": true,
      "inputs": [
        {
          "internalType": "address",
          "name": "",
          "type": "address"
        }
      ],
      "name": "voters",
      "outputs": [
        {
          "internalType": "bool",
          "name": "authorised",
          "type": "bool"
        },
        {
          "internalType": "bool",
          "name": "voted",
          "type": "bool"
        },
        {
          "internalType": "uint256",
          "name": "vote",
          "type": "uint256"
        },
        {
          "internalType": "uint256",
          "name": "numShares",
          "type": "uint256"
        }
      ],
      "payable": false,
      "stateMutability": "view",
      "type": "function"
    },
    {
      "constant": false,
      "inputs": [
        {
          "internalType": "string",
          "name": "_name",
          "type": "string"
        }
      ],
      "name": "changeElectionName",
      "outputs": [],
      "payable": false,
      "stateMutability": "nonpayable",
      "type": "function"
    },
    {
      "constant": false,
      "inputs": [
        {
          "internalType": "string",
          "name": "_description",
          "type": "string"
        }
      ],
      "name": "addOption",
      "outputs": [],
      "payable": false,
      "stateMutability": "nonpayable",
      "type": "function"
    },
    {
      "constant": false,
      "inputs": [
        {
          "internalType": "address",
          "name": "_person",
          "type": "address"
        },
        {
          "internalType": "uint256",
          "name": "_numShares",
          "type": "uint256"
        }
      ],
      "name": "registerVoter",
      "outputs": [],
      "payable": false,
      "stateMutability": "nonpayable",
      "type": "function"
    },
    {
      "constant": false,
      "inputs": [
        {
          "internalType": "uint256",
          "name": "_optionId",
          "type": "uint256"
        }
      ],
      "name": "vote",
      "outputs": [],
      "payable": false,
      "stateMutability": "nonpayable",
      "type": "function"
    }
  ],
  "bytecode": "0x60806040523480156200001157600080fd5b50336000806101000a81548173ffffffffffffffffffffffffffffffffffffffff021916908373ffffffffffffffffffffffffffffffffffffffff160217905550620000986040518060400160405280600381526020017f466f720000000000000000000000000000000000000000000000000000000000815250620001e560201b60201c565b620000de6040518060400160405280600781526020017f416761696e737400000000000000000000000000000000000000000000000000815250620001e560201b60201c565b620001246040518060400160405280600781526020017f4162737461696e00000000000000000000000000000000000000000000000000815250620001e560201b60201c565b6200016a6040518060400160405280601d81526020017f4d6f74696f6e20746f206d657267652077697468204142432042616e6b0000008152506200026360201b60201c565b620001917353c304bb4a9427c13bef36257881e96adde93af660056200027f60201b60201c565b620001b87339d7be9106fb2de9fc0998255c73e1383cef6e5d60036200027f60201b60201c565b620001df733e84abba5773154cb9d88e2286a0bb8357e6e82760026200027f60201b60201c565b620004b5565b600360008154809291906001019190505550604051806060016040528060035481526020018281526020016000815250600160006003548152602001908152602001600020600082015181600001556020820151816001019080519060200190620002529291906200037f565b506040820151816002015590505050565b80600490805190602001906200027b92919062000406565b5050565b6000809054906101000a900473ffffffffffffffffffffffffffffffffffffffff1673ffffffffffffffffffffffffffffffffffffffff163373ffffffffffffffffffffffffffffffffffffffff1614620002d957600080fd5b6001600260008473ffffffffffffffffffffffffffffffffffffffff1673ffffffffffffffffffffffffffffffffffffffff16815260200190815260200160002060000160006101000a81548160ff02191690831515021790555080600260008473ffffffffffffffffffffffffffffffffffffffff1673ffffffffffffffffffffffffffffffffffffffff168152602001908152602001600020600201819055505050565b828054600181600116156101000203166002900490600052602060002090601f016020900481019282601f10620003c257805160ff1916838001178555620003f3565b82800160010185558215620003f3579182015b82811115620003f2578251825591602001919060010190620003d5565b5b5090506200040291906200048d565b5090565b828054600181600116156101000203166002900490600052602060002090601f016020900481019282601f106200044957805160ff19168380011785556200047a565b828001600101855582156200047a579182015b82811115620004795782518255916020019190600101906200045c565b5b5090506200048991906200048d565b5090565b620004b291905b80821115620004ae57600081600090555060010162000494565b5090565b90565b610b2280620004c56000396000f3fe608060405234801561001057600080fd5b50600436106100935760003560e01c80638da5cb5b116100665780638da5cb5b146102b9578063a3ec138d14610303578063cbea81ef14610378578063e32fe90b146103c6578063edc550dc146103e457610093565b80630121b93f146100985780631e42c19a146100c6578063409e22051461018157806385e8e7a714610236575b600080fd5b6100c4600480360360208110156100ae57600080fd5b810190808035906020019092919050505061049f565b005b61017f600480360360208110156100dc57600080fd5b81019080803590602001906401000000008111156100f957600080fd5b82018360208201111561010b57600080fd5b8035906020019184600183028401116401000000008311171561012d57600080fd5b91908080601f016020809104026020016040519081016040528093929190818152602001838380828437600081840152601f19601f82011690508083019250505050505050919291929050505061065e565b005b6101ad6004803603602081101561019757600080fd5b8101908080359060200190929190505050610678565b6040518084815260200180602001838152602001828103825284818151815260200191508051906020019080838360005b838110156101f95780820151818401526020810190506101de565b50505050905090810190601f1680156102265780820380516001836020036101000a031916815260200191505b5094505050505060405180910390f35b61023e61073a565b6040518080602001828103825283818151815260200191508051906020019080838360005b8381101561027e578082015181840152602081019050610263565b50505050905090810190601f1680156102ab5780820380516001836020036101000a031916815260200191505b509250505060405180910390f35b6102c16107d8565b604051808273ffffffffffffffffffffffffffffffffffffffff1673ffffffffffffffffffffffffffffffffffffffff16815260200191505060405180910390f35b6103456004803603602081101561031957600080fd5b81019080803573ffffffffffffffffffffffffffffffffffffffff1690602001909291905050506107fd565b60405180851515151581526020018415151515815260200183815260200182815260200194505050505060405180910390f35b6103c46004803603604081101561038e57600080fd5b81019080803573ffffffffffffffffffffffffffffffffffffffff16906020019092919080359060200190929190505050610847565b005b6103ce610946565b6040518082815260200191505060405180910390f35b61049d600480360360208110156103fa57600080fd5b810190808035906020019064010000000081111561041757600080fd5b82018360208201111561042957600080fd5b8035906020019184600183028401116401000000008311171561044b57600080fd5b91908080601f016020809104026020016040519081016040528093929190818152602001838380828437600081840152601f19601f82011690508083019250505050505050919291929050505061094c565b005b600260003373ffffffffffffffffffffffffffffffffffffffff1673ffffffffffffffffffffffffffffffffffffffff16815260200190815260200160002060000160019054906101000a900460ff16156104f957600080fd5b600260003373ffffffffffffffffffffffffffffffffffffffff1673ffffffffffffffffffffffffffffffffffffffff16815260200190815260200160002060000160009054906101000a900460ff1661055257600080fd5b60008111801561056457506003548111155b61056d57600080fd5b6001600260003373ffffffffffffffffffffffffffffffffffffffff1673ffffffffffffffffffffffffffffffffffffffff16815260200190815260200160002060000160016101000a81548160ff021916908315150217905550600260003373ffffffffffffffffffffffffffffffffffffffff1673ffffffffffffffffffffffffffffffffffffffff168152602001908152602001600020600201546001600083815260200190815260200160002060020160008282540192505081905550807ffff3c900d938d21d0990d786e819f29b8d05c1ef587b462b939609625b684b1660405160405180910390a250565b80600490805190602001906106749291906109c8565b5050565b6001602052806000526040600020600091509050806000015490806001018054600181600116156101000203166002900480601f01602080910402602001604051908101604052809291908181526020018280546001816001161561010002031660029004801561072a5780601f106106ff5761010080835404028352916020019161072a565b820191906000526020600020905b81548152906001019060200180831161070d57829003601f168201915b5050505050908060020154905083565b60048054600181600116156101000203166002900480601f0160208091040260200160405190810160405280929190818152602001828054600181600116156101000203166002900480156107d05780601f106107a5576101008083540402835291602001916107d0565b820191906000526020600020905b8154815290600101906020018083116107b357829003601f168201915b505050505081565b6000809054906101000a900473ffffffffffffffffffffffffffffffffffffffff1681565b60026020528060005260406000206000915090508060000160009054906101000a900460ff16908060000160019054906101000a900460ff16908060010154908060020154905084565b6000809054906101000a900473ffffffffffffffffffffffffffffffffffffffff1673ffffffffffffffffffffffffffffffffffffffff163373ffffffffffffffffffffffffffffffffffffffff16146108a057600080fd5b6001600260008473ffffffffffffffffffffffffffffffffffffffff1673ffffffffffffffffffffffffffffffffffffffff16815260200190815260200160002060000160006101000a81548160ff02191690831515021790555080600260008473ffffffffffffffffffffffffffffffffffffffff1673ffffffffffffffffffffffffffffffffffffffff168152602001908152602001600020600201819055505050565b60035481565b6003600081548092919060010191905055506040518060600160405280600354815260200182815260200160008152506001600060035481526020019081526020016000206000820151816000015560208201518160010190805190602001906109b7929190610a48565b506040820151816002015590505050565b828054600181600116156101000203166002900490600052602060002090601f016020900481019282601f10610a0957805160ff1916838001178555610a37565b82800160010185558215610a37579182015b82811115610a36578251825591602001919060010190610a1b565b5b509050610a449190610ac8565b5090565b828054600181600116156101000203166002900490600052602060002090601f016020900481019282601f10610a8957805160ff1916838001178555610ab7565b82800160010185558215610ab7579182015b82811115610ab6578251825591602001919060010190610a9b565b5b509050610ac49190610ac8565b5090565b610aea91905b80821115610ae6576000816000905550600101610ace565b5090565b9056fea265627a7a723158203120d44f36fad3e8dcf6e1cd4e27a10869543f8110394ec19075d6b57f478d9264736f6c63430005100032",
  "source": "pragma solidity ^0.5.16;\n\ncontract Election {\n    // Model an Option\n    struct Option {\n        uint id;\n        string description;\n        uint voteCount;\n    }\n    \n    struct Voter{\n        bool authorised;\n        bool voted;\n        uint vote;\n        uint numShares;\n    }\n    \n    \n    // For modifier so only the owner can call the funtions \n    address public owner;\n    \n    // to access options with indexing\n    mapping(uint => Option) public options;\n    \n    // to access voters with their address\n    mapping(address => Voter) public voters;\n    \n    //Could have used length but I saw a site which talked about mapping possibly giving issues because of spare hash values\n    uint public optionCount;\n    string public electionName;\n    \n    // Basic 3\n    constructor() public{\n        \n        owner = msg.sender;\n        addOption(\"For\");\n        addOption(\"Against\");\n        addOption(\"Abstain\");\n        changeElectionName('Motion to merge with ABC Bank');\n        //testing Purposes\n        registerVoter(0x53c304BB4a9427c13Bef36257881E96aDDE93Af6, 5);\n        registerVoter(0x39d7BE9106FB2De9FC0998255C73E1383cEf6E5d, 3);\n        registerVoter(0x3E84ABBA5773154Cb9d88e2286a0bB8357e6E827, 2);\n        }\n\n    // voted event\n    event votedEvent (\n        uint indexed _optionId\n    );\n    \n    // So only an owner can access function\n    modifier ownerOnly() {\n        require(msg.sender == owner);\n        _;\n    }\n\n    function changeElectionName(string memory _name) public {\n        electionName = _name;\n    }\n\n\n    // Adding any additional options!\n    function addOption (string memory _description) public {\n        optionCount ++;\n        options[optionCount] = Option(optionCount, _description, 0);\n    }\n\n    // Register voters\n    function registerVoter(address _person, uint _numShares) ownerOnly public {\n        voters[_person].authorised = true;\n        voters[_person].numShares = _numShares;\n    }\n\n    function vote (uint _optionId) public {\n        // require that they haven't voted before and they are authorised to Vote\n        require(!voters[msg.sender].voted);\n        require(voters[msg.sender].authorised);\n\n        // require a valid candidate\n        require(_optionId > 0 && _optionId <= optionCount);\n\n        // record that voter has voted\n        voters[msg.sender].voted = true;\n\n        // update option vote Count according\n        options[_optionId].voteCount += voters[msg.sender].numShares;\n\n        // trigger voted event\n        emit votedEvent(_optionId);\n    }\n}\n\n\n\n\n\n\n// pragma solidity ^0.5.16;\n\n// contract Election {\n//     // Model a Candidate\n//     struct Candidate {\n//         uint id;\n//         string name;\n//         uint voteCount;\n//     }\n    \n    \n//     // Store accounts that have voted\n//     mapping(address => bool) voters;\n//     // Store Candidates\n//     // Fetch Candidate \n//     mapping(uint => Candidate) candidates;\n//     // Store Candidates Count\n//     uint public candidatesCount;\n//     uint public test = 3;\n\n    \n\n\n//     constructor() public{\n//         addCandidate(\"Candidate 1\");\n//         addCandidate(\"Candidate 2\");\n//         }\n\n//     // voted event\n//     event votedEvent (\n//         uint indexed _candidateId\n//     );\n\n//     function getCandidate(uint memory _key) public view returns (string storage) {\n//         return candidates[_key].name;\n//     }  \n\n//     function addCandidate (string memory _name) private {\n//         candidatesCount ++;\n//         candidates[candidatesCount] = Candidate(candidatesCount, _name, 0);\n//     }\n\n//     function vote (uint memory _candidateId) public {\n//         // require that they haven't voted before\n//         require(!voters[msg.sender]);\n\n//         // require a valid candidate\n//         require(_candidateId > 0 && _candidateId <= candidatesCount);\n\n//         // record that voter has voted\n//         voters[msg.sender] = true;\n\n//         // update candidate vote Count\n//         candidates[_candidateId].voteCount ++;\n\n//         // trigger voted event\n//         emit votedEvent(_candidateId);\n//     }\n// }\n\n\n\n\n\n// pragma solidity ^0.5.16;\n\n// contract Election {\n//     // Model a Candidate\n//     struct Candidate {\n//         uint id;\n//         string name;\n//         uint voteCount;\n//     }\n\n// constructor() public{\n//     // Store accounts that have voted\n//     mapping(address => bool) public voters;\n//     // Store Candidates\n//     // Fetch Candidate\n//     mapping(uint => Candidate) public candidates;\n//     // Store Candidates Count\n//     uint public candidatesCount;\n//     }\n\n\n\n//     // voted event\n//     event votedEvent (\n//         uint indexed _candidateId\n//     );\n\n//     function Election () public {\n//         addCandidate(\"Candidate 1\");\n//         addCandidate(\"Candidate 2\");\n//     }\n\n//     function addCandidate (string _name) private {\n//         candidatesCount ++;\n//         candidates[candidatesCount] = Candidate(candidatesCount, _name, 0);\n//     }\n\n//     function vote (uint _candidateId) public {\n//         // require that they haven't voted before\n//         require(!voters[msg.sender]);\n\n//         // require a valid candidate\n//         require(_candidateId > 0 && _candidateId <= candidatesCount);\n\n//         // record that voter has voted\n//         voters[msg.sender] = true;\n\n//         // update candidate vote Count\n//         candidates[_candidateId].voteCount ++;\n\n//         // trigger voted event\n//         votedEvent(_candidateId);\n//     }\n// }\n",
  "sourcePath": "C:/Users/brayd/Desktop/ALL BLOCKCHAIN PROJECT STUFF/Voting/contracts/Election.sol",
  "compiler": {
    "name": "solc",
    "version": "0.5.16+commit.9c3226ce.Emscripten.clang"
  },
  "schemaVersion": "3.3.1",
  "updatedAt": "2020-11-11T09:02:41.916Z",
  "networkType": "ethereum",
  "devdoc": {
    "methods": {}
  },
  "userdoc": {
    "methods": {}
  }
}